{
  "_format": "hh-sol-artifact-1",
  "contractName": "BuyMeACoffee",
  "sourceName": "contracts/BuyMeACoffee.sol",
  "abi": [
    {
      "inputs": [],
      "stateMutability": "nonpayable",
      "type": "constructor"
    },
    {
      "anonymous": false,
      "inputs": [
        {
          "indexed": true,
          "internalType": "address",
          "name": "from",
          "type": "address"
        },
        {
          "indexed": false,
          "internalType": "uint256",
          "name": "timestamp",
          "type": "uint256"
        },
        {
          "indexed": false,
          "internalType": "string",
          "name": "name",
          "type": "string"
        },
        {
          "indexed": false,
          "internalType": "string",
          "name": "message",
          "type": "string"
        }
      ],
      "name": "NewMemo",
      "type": "event"
    },
    {
      "inputs": [
        {
          "internalType": "string",
          "name": "_name",
          "type": "string"
        },
        {
          "internalType": "string",
          "name": "_message",
          "type": "string"
        }
      ],
      "name": "BuyACoffee",
      "outputs": [],
      "stateMutability": "payable",
      "type": "function"
    },
    {
      "inputs": [],
      "name": "getMemos",
      "outputs": [
        {
          "components": [
            {
              "internalType": "address",
              "name": "from",
              "type": "address"
            },
            {
              "internalType": "uint256",
              "name": "timestamp",
              "type": "uint256"
            },
            {
              "internalType": "string",
              "name": "name",
              "type": "string"
            },
            {
              "internalType": "string",
              "name": "message",
              "type": "string"
            }
          ],
          "internalType": "struct BuyMeACoffee.Memo[]",
          "name": "",
          "type": "tuple[]"
        }
      ],
      "stateMutability": "view",
      "type": "function"
    },
    {
      "inputs": [],
      "name": "getOwner",
      "outputs": [
        {
          "internalType": "address",
          "name": "",
          "type": "address"
        }
      ],
      "stateMutability": "view",
      "type": "function"
    },
    {
      "inputs": [],
      "name": "withdrawTips",
      "outputs": [],
      "stateMutability": "nonpayable",
      "type": "function"
    }
  ],
  "bytecode": "0x608060405234801561001057600080fd5b5033600160006101000a81548173ffffffffffffffffffffffffffffffffffffffff021916908373ffffffffffffffffffffffffffffffffffffffff160217905550610cf7806100616000396000f3fe60806040526004361061003f5760003560e01c80633aaa74b214610044578063865c51721461005b578063893d20e814610086578063933accc1146100b1575b600080fd5b34801561005057600080fd5b506100596100cd565b005b34801561006757600080fd5b5061007061012f565b60405161007d91906106cc565b60405180910390f35b34801561009257600080fd5b5061009b610312565b6040516100a891906106fd565b60405180910390f35b6100cb60048036038101906100c69190610861565b61033c565b005b600160009054906101000a900473ffffffffffffffffffffffffffffffffffffffff1673ffffffffffffffffffffffffffffffffffffffff166108fc479081150290604051600060405180830381858888f1935050505061012d57600080fd5b565b60606000805480602002602001604051908101604052809291908181526020016000905b8282101561030957838290600052602060002090600402016040518060800160405290816000820160009054906101000a900473ffffffffffffffffffffffffffffffffffffffff1673ffffffffffffffffffffffffffffffffffffffff1673ffffffffffffffffffffffffffffffffffffffff168152602001600182015481526020016002820180546101e690610908565b80601f016020809104026020016040519081016040528092919081815260200182805461021290610908565b801561025f5780601f106102345761010080835404028352916020019161025f565b820191906000526020600020905b81548152906001019060200180831161024257829003601f168201915b5050505050815260200160038201805461027890610908565b80601f01602080910402602001604051908101604052809291908181526020018280546102a490610908565b80156102f15780601f106102c6576101008083540402835291602001916102f1565b820191906000526020600020905b8154815290600101906020018083116102d457829003601f168201915b50505050508152505081526020019060010190610153565b50505050905090565b6000600160009054906101000a900473ffffffffffffffffffffffffffffffffffffffff16905090565b6000341161037f576040517f08c379a000000000000000000000000000000000000000000000000000000000815260040161037690610996565b60405180910390fd5b600060405180608001604052803373ffffffffffffffffffffffffffffffffffffffff16815260200142815260200184815260200183815250908060018154018082558091505060019003906000526020600020906004020160009091909190915060008201518160000160006101000a81548173ffffffffffffffffffffffffffffffffffffffff021916908373ffffffffffffffffffffffffffffffffffffffff1602179055506020820151816001015560408201518160020190816104479190610b62565b50606082015181600301908161045d9190610b62565b5050503373ffffffffffffffffffffffffffffffffffffffff167fc56140e05f516509ae28110e0f72e17558a7561630dad2647c3ae87d986e365c4284846040516104aa93929190610c7c565b60405180910390a25050565b600081519050919050565b600082825260208201905092915050565b6000819050602082019050919050565b600073ffffffffffffffffffffffffffffffffffffffff82169050919050565b600061050d826104e2565b9050919050565b61051d81610502565b82525050565b6000819050919050565b61053681610523565b82525050565b600081519050919050565b600082825260208201905092915050565b60005b8381101561057657808201518184015260208101905061055b565b60008484015250505050565b6000601f19601f8301169050919050565b600061059e8261053c565b6105a88185610547565b93506105b8818560208601610558565b6105c181610582565b840191505092915050565b60006080830160008301516105e46000860182610514565b5060208301516105f7602086018261052d565b506040830151848203604086015261060f8282610593565b915050606083015184820360608601526106298282610593565b9150508091505092915050565b600061064283836105cc565b905092915050565b6000602082019050919050565b6000610662826104b6565b61066c81856104c1565b93508360208202850161067e856104d2565b8060005b858110156106ba578484038952815161069b8582610636565b94506106a68361064a565b925060208a01995050600181019050610682565b50829750879550505050505092915050565b600060208201905081810360008301526106e68184610657565b905092915050565b6106f781610502565b82525050565b600060208201905061071260008301846106ee565b92915050565b6000604051905090565b600080fd5b600080fd5b600080fd5b600080fd5b7f4e487b7100000000000000000000000000000000000000000000000000000000600052604160045260246000fd5b61076e82610582565b810181811067ffffffffffffffff8211171561078d5761078c610736565b5b80604052505050565b60006107a0610718565b90506107ac8282610765565b919050565b600067ffffffffffffffff8211156107cc576107cb610736565b5b6107d582610582565b9050602081019050919050565b82818337600083830152505050565b60006108046107ff846107b1565b610796565b9050828152602081018484840111156108205761081f610731565b5b61082b8482856107e2565b509392505050565b600082601f8301126108485761084761072c565b5b81356108588482602086016107f1565b91505092915050565b6000806040838503121561087857610877610722565b5b600083013567ffffffffffffffff81111561089657610895610727565b5b6108a285828601610833565b925050602083013567ffffffffffffffff8111156108c3576108c2610727565b5b6108cf85828601610833565b9150509250929050565b7f4e487b7100000000000000000000000000000000000000000000000000000000600052602260045260246000fd5b6000600282049050600182168061092057607f821691505b602082108103610933576109326108d9565b5b50919050565b600082825260208201905092915050565b7f43616e6e6f7420627579206120636f6666656520776974682030206574680000600082015250565b6000610980601e83610939565b915061098b8261094a565b602082019050919050565b600060208201905081810360008301526109af81610973565b9050919050565b60008190508160005260206000209050919050565b60006020601f8301049050919050565b600082821b905092915050565b600060088302610a187fffffffffffffffffffffffffffffffffffffffffffffffffffffffffffffffff826109db565b610a2286836109db565b95508019841693508086168417925050509392505050565b6000819050919050565b6000610a5f610a5a610a5584610523565b610a3a565b610523565b9050919050565b6000819050919050565b610a7983610a44565b610a8d610a8582610a66565b8484546109e8565b825550505050565b600090565b610aa2610a95565b610aad818484610a70565b505050565b5b81811015610ad157610ac6600082610a9a565b600181019050610ab3565b5050565b601f821115610b1657610ae7816109b6565b610af0846109cb565b81016020851015610aff578190505b610b13610b0b856109cb565b830182610ab2565b50505b505050565b600082821c905092915050565b6000610b3960001984600802610b1b565b1980831691505092915050565b6000610b528383610b28565b9150826002028217905092915050565b610b6b8261053c565b67ffffffffffffffff811115610b8457610b83610736565b5b610b8e8254610908565b610b99828285610ad5565b600060209050601f831160018114610bcc5760008415610bba578287015190505b610bc48582610b46565b865550610c2c565b601f198416610bda866109b6565b60005b82811015610c0257848901518255600182019150602085019450602081019050610bdd565b86831015610c1f5784890151610c1b601f891682610b28565b8355505b6001600288020188555050505b505050505050565b610c3d81610523565b82525050565b6000610c4e8261053c565b610c588185610939565b9350610c68818560208601610558565b610c7181610582565b840191505092915050565b6000606082019050610c916000830186610c34565b8181036020830152610ca38185610c43565b90508181036040830152610cb78184610c43565b905094935050505056fea2646970667358221220b22fcfa250487de6b9ca5e0e6ce43f271992d46233f7f78ade2cc02b0815663f64736f6c63430008180033",
  "linkReferences": {},
  "deployedLinkReferences": {}
}